:020000040800F2
:10000000B8080020ED260008414D0008434D0008C7
:10001000474D00084B4D00084F4D00080000000000
:10002000000000000000000000000000534D000828
:10003000554D000800000000574D00085B4D0008BA
:1000400007270008072700080727000807270008D8
:1000500007270008072700080727000807270008C8
:1000600007270008072700080727000807270008B8
:1000700007270008072700080727000807270008A8
:100080000727000807270008072700080727000898
:100090000727000807270008072700080727000888
:1000A00007270008594D00080727000801370008F6
:1000B0006930000807270008753000080727000886
:1000C0000727000807270008072700080727000858
:1000D000072700080727000807270008E94D000840
:1000E000072700080727000807270008DFF80CD0BB
:1000F00005F0B6FB004800471B4D0008B80800207B
:1001000031490143314A1160704770B50021002325
:100110000F22C47804B32D4C246804F4E064C4F5C1
:10012000E064210AC1F10403CA40447804FA03F1EF
:100130008478144021430901254C0678A1550478A0
:1001400004F01F050124AC4005786D11AD0005F1E8
:10015000E025C5F8004109E0047804F01F050124FA
:10016000AC401C4D0678761145F8264070BD1A4A01
:100170000A400243154B1B1F1A60704739B1134ADE
:10018000121D12680243114B1B1D1A6006E00F4A34
:10019000121D126882430D4B1B1D1A607047042804
:1001A00008D14FF0E021096941F004014FF0E0224D
:1001B000116107E04FF0E021096921F004014FF0DF
:1001C000E0221161704700000000FA050CED00E02C
:1001D00000E400E080E100E080FFFF1F10B504466E
:1001E000FA48844208D10121401501F033F800217A
:1001F000601501F02FF817E0F548844208D101217D
:10020000001501F027F80021201501F023F80BE07C
:10021000F048844208D10121C80301F01BF80021F5
:100220004FF4004001F016F810BD30B50246002032
:1002300000235068E84C20400D790C6844EA0524FE
:10024000204350609068E54C2040D1E902542C4393
:100250004D7944EA450420439060D06A20F4700050
:100260000C7C641EE4B2234340EA0350D06230BDEC
:1002700000210160017141718160C160012101743F
:10028000704721B1826842F00102826003E0826817
:1002900022F001028260704721B1826842F48072CC
:1002A000826003E0826822F480728260704710B539
:1002B0000023CBB21AB144681C43446002E0446896
:1002C0009C43446010BD816841F008018160704723
:1002D000014600208A6802F008020AB1012000E00D
:1002E00000207047816841F0040181607047014639
:1002F00000208A6802F004020AB1012000E0002018
:10030000704721B1826842F4A002826003E08268F3
:1003100022F4A00282607047014600208A6802F43D
:1003200080020AB1012000E00020704710B50A46A3
:1003300000210023416821F46041531E41EA43310A
:10034000416010BD21B1426842F40062426003E0A6
:10035000426822F4006242607047F0B504460D46E0
:1003600000200021092D11DDE068A5F10A0606EB49
:100370004607072606FA07F18843A5F10A0606EBA9
:10038000460603FA06F10843E0600CE0206905EB3D
:100390004507072606FA07F1884305EB450603FAE9
:1003A00006F108432061072A0FDA606B561E06EB40
:1003B00086071F2606FA07F18843561E06EB8606B7
:1003C00005FA06F10843606322E00D2A0FDA206B7C
:1003D000D61F06EB86071F2606FA07F18843D61FAD
:1003E00006EB860605FA06F10843206310E0E06A92
:1003F000A2F10D0606EB86071F2606FA07F18843D1
:10040000A2F10D0606EB860605FA06F10843E06246
:10041000F0BD21B1826842F48012826003E08268FC
:1004200022F48012826070470146C86C80B2704727
:1004300066484C300068704721B1426842F48062DF
:10044000426003E0426822F480624260704721B15A
:10045000426842F48052426003E0426822F48052D3
:10046000426070470A460021816821F4E04111434F
:100470008160704721B1826842F40042826003E0EB
:10048000826822F400428260704721B1826842F49F
:100490000212826003E0826822F4021282607047D6
:1004A000014600208A6802F400120AB1012000E02F
:1004B00000207047F0B504461546002000220026B3
:1004C000092911DDE068A1F10A0707EB470C0727AE
:1004D00007FA0CF29043A1F10A0707EB470703FA6A
:1004E00007F21043E0600CE0206901EB410C0727A4
:1004F00007FA0CF2904301EB410703FA07F21043AD
:100500002061A06BC0F30156EF1C06F1010CA7EBB4
:100510000C0707EB870C1F2707FA0CF29043EF1C20
:1005200006F1010CA7EB0C0707EB870701FA07F2AE
:100530001043A063F0BD10B50A4600210023816B73
:1005400021F44011531E41EA0351816310BD08B5E7
:10055000002300930090009B0B440093009B1A60C3
:1005600008BD08B5024600200090009201F1280065
:10057000009B184400900098006880B208BD0A46AD
:1005800000214168164B1940114341607047416298
:10059000826270470A460021416821F01F01114321
:1005A0004160704740B109490831096841F40001D0
:1005B000064A0832116007E004490831096821F44D
:1005C0000001024A08321160704700000024014017
:1005D00000280140003C0140FFFEF0FFFDF7F1FF65
:1005E000FFFD3FFF0246002013680B400BB10120C6
:1005F00000E000207047CA430260704770B50246B1
:100600000020002300240B125568CEB205EA060430
:1006100015681D4015B10CB1012000E0002070BD2F
:1006200000220A12D34303607047000001460020F5
:10063000FE4A106800F03800084310607047FB491C
:10064000096821F00801F94A11601146096801435F
:1006500011607047F549096821F01001F34A1160F3
:1006600011460968014311607047F148EF4948603D
:10067000F04848607047EE48EC494860ED484860F3
:100680007047EA48006940F08000E8490861704717
:10069000E648006940F08000E449086170470420A2
:1006A000E249C96801F0010109B101200EE0DF490A
:1006B000C96801F0040109B1022007E0DB49C968FB
:1006C00001F0100109B1032000E00420704700B5DB
:1006D00002460423FFF7E3FF034603E0FFF7DFFFD3
:1006E0000346521E012B01D1002AF7D102B905237E
:1006F000184600BD30B5044604254FF43020FFF7FE
:10070000E6FF0546042D17D1C848006940F00200F5
:10071000C649086108464461006940F0400008612C
:100720004FF43020FFF7D3FF0546C048006941F67B
:10073000FD710840BD490861284630BD10B504244C
:100740004FF43020FFF7C3FF0446042C16D1B748FE
:10075000006940F00400B54908610846006940F0AE
:10076000400008614FF43020FFF7B1FF0446AF4866
:10077000006941F6FB710840AC490861204610BD94
:1007800000B502460423FFF78AFF034603E0FFF7A4
:1007900086FF0346521E012B01D1002AF7D102B970
:1007A0000523184600BD10B504244FF43020FFF790
:1007B000E7FF0446042C16D19C48006940F0040071
:1007C0009A4908610846006940F0400008614FF40A
:1007D0003020FFF7D5FF04469448006941F6FB71CD
:1007E000084092490861204610BD00208F49C96920
:1007F00001F0020109B1012000E00020704730B58E
:10080000A5250424FFF7F1FF00B100254FF43020A7
:10081000FFF75DFF0446042C3AD185488349886080
:10082000844888600846006940F020000861084656
:10083000006940F0400008614FF43020FFF747FFA7
:100840000446042C1BD17948006941F6DF71084049
:10085000764908610846006940F010000861764852
:100860000580E002FFF733FF0446052C10D06F48E7
:10087000006941F6EF7108406C49086108E0052CF9
:1008800006D06A48006941F6EF710840674908617F
:10089000204630BD78B506460C4604250020009061
:1008A000E802FFF714FF0546042D24D15F480069D4
:1008B00040F001005D4908613480E802FFF707FF5E
:1008C0000546042D10D1B01C0090200C0099088022
:1008D000E802FFF7FCFE05465448006941F6FE7148
:1008E00008405249086106E05048006941F6FE712F
:1008F00008404E490861284678BD70B504460D464B
:100900000426F002FFF7E3FE0646042E11D1474805
:10091000006940F00100454908612580F002FFF7B9
:10092000D6FE06464148006941F6FE7108403F493F
:100930000861304670BD70B505460E460424E002DD
:10094000FFF7C5FE0446042C17D1394837498860A3
:10095000384888600846006940F0100008612E8021
:10096000E002FFF7B4FE0446052C06D02F480069CC
:1009700041F6EF7108402D490861204670BD2DE910
:10098000F04304464FF6FF763746B046B14604259D
:10099000E443E6B2C4F30727C4F307484FEA1469F7
:1009A000E802FFF794FE0546042D49D120481F496F
:1009B0008860204888600846006940F0100008619F
:1009C000FF2E06D01C4808300680E802FFF77FFEA5
:1009D0000546042D08D1FF2F06D017480A3007809E
:1009E000E802FFF774FE0546042D0AD1B8F1FF0FA7
:1009F00007D011480C30A0F80080E802FFF767FE2E
:100A00000546042D0AD1B9F1FF0F07D00A480E3070
:100A1000A0F80090E802FFF75AFE0546052D0FD01A
:100A20000248006941F6EF71084007E000200240EB
:100A300023016745AB89EFCD00F8FF1F66490861C8
:100A40002846BDE8F08330B5054604244FF4302035
:100A5000FFF73DFE0446042C41D160485E498860A2
:100A60005F4888600846006940F020000861084639
:100A7000006940F0400008614FF43020FFF727FE86
:100A80000446042C22D15448006941F6DF71084025
:100A9000514908610846006940F0100008611DB125
:100AA00000205049088002E0A5204E4908804FF4FC
:100AB0003020FFF70CFE0446052C10D04648006994
:100AC00041F6EF7108404449086108E0052C06D062
:100AD0004148006941F6DF7108403F4908612046FE
:100AE00030BDF0B505460E46174604243B483A494A
:100AF00088603B488860E002FFF7E9FD0446042C6B
:100B000019D13548006940F010003349086147F0B9
:100B1000F800304328433349891C0880E002FFF77E
:100B2000D6FD0446052C06D02B48006941F6EF712E
:100B30000840294908612046F0BD2748C06980085F
:100B400070472548006A704700202349096801F072
:100B5000200109B1012000E00020704729B11E4AA0
:100B6000126902431C4B1A6104E01B4A126982435A
:100B7000194B1A61704701460020012908D1164A15
:100B8000D26902F001020AB1012008E0002006E06B
:100B9000114AD2680A400AB1012000E000207047E3
:100BA0000D49C860704704200B49C96801F0010174
:100BB00009B101200EE00849C96801F0040109B13A
:100BC000022007E00449C96801F0100109B10320BF
:100BD00000E0042070470000002002402301674528
:100BE000AB89EFCD00F8FF1F10B50446CC48844216
:100BF00008D10121042000F02DFB0021042000F089
:100C000029FB46E0C748844208D10121082000F0B2
:100C100021FB0021082000F01DFB3AE0C24884427D
:100C200008D10121102000F015FB0021102000F058
:100C300011FB2EE0BD48844208D10121202000F0A4
:100C400009FB0021202000F005FB22E0B848844287
:100C500008D10121402000F0FDFA0021402000F0E1
:100C6000F9FA16E0B348844208D10121802000F04F
:100C7000F1FA0021802000F0EDFA0AE0AE4884424B
:100C800007D10121801500F0E5FA0021A01500F040
:100C9000E1FA10BD10B50121084600F0DBFA002191
:100CA000012000F0D7FA10BD2DE9F04102460025E1
:100CB0000026002000230024002791F803C00CF038
:100CC0000F0591F803C00CF0100CBCF1000F03D01D
:100CD00091F802C04CEA050591F800C0BCF1000F84
:100CE00031D0146800202BE04FF0010C0CFA00F317
:100CF000B1F800C00CEA03069E4220D183004FF0F9
:100D00000F0C0CFA03F7BC4305FA03FC4CEA04048D
:100D100091F803C0BCF1280F06D14FF0010C0CFA7A
:100D200000FCC2F814C00AE091F803C0BCF1480FFF
:100D300005D14FF0010C0CFA00FCC2F810C0401CA9
:100D40000828D1D31460B1F800C0BCF1FF0F34DD26
:100D5000546800202EE000F1080C4FF0010808FA5A
:100D60000CF3B1F800C00CEA03069E4221D18300C7
:100D70004FF00F0C0CFA03F7BC4305FA03FC4CEAE6
:100D8000040491F803C0BCF1280F05D100F1080C50
:100D900008FA0CF8C2F8148091F803C0BCF1480FAF
:100DA00007D100F1080C4FF0010808FA0CF8C2F85E
:100DB0001080401C0828CED35460BDE8F0814FF667
:100DC000FF710180022181700421C17070470246C9
:100DD000002093680B400BB1012000E00020704719
:100DE0000146886880B2704702460020D3680B40F5
:100DF0000BB1012000E0002070470146C86880B2B6
:100E0000704701617047416170470AB1016100E0BC
:100E100041617047C16070474FF480320A4382617C
:100E20008161826182698269704702460020434B7A
:100E300018684FF68073184040EA021008433F4B91
:100E4000186070473E49C8617047F0B50A460023F4
:100E500000240021002500F00046B6F1004F02D129
:100E6000364EF16901E0354E7168C0F3034583B237
:100E700000F44016B6F5401F08D121F070612F4EE6
:100E8000766826F070662D4F7E6012E000F48016C2
:100E9000B6F5801F06D1032606FA05F4A14341F0FA
:100EA000706106E0460D360103FA06F6B14341F0E3
:100EB000706122B1460D360103FA06F6314300F0A7
:100EC0000046B6F1004F02D11C4EF16101E01B4E0D
:100ED0007160F0BD30B500228B071C0F0F2303FAA1
:100EE00004F2164B08338C1053F824309343134C00
:100EF00008348D1044F8253023468C1053F82430E4
:100F00008C07240F00FA04F423430C4C08348D1092
:100F100044F8253030BD0A49DC31086070470000D4
:100F200000080140000C0140001001400014014085
:100F300000180140001C0140002001400000014059
:100F400000002042DF48006840F00100DD490860F1
:100F500008464068DC490840DA49486008460068AD
:100F6000DA490840D74908600846006820F4802024
:100F700008600846406820F4FE0048604FF41F00F7
:100F800088607047CF49096821F48031CD4A1160EB
:100F90001146096821F480211160B0F5803F03D02B
:100FA000B0F5802F0ED106E0C649096841F48031C2
:100FB000C44A116007E0C349096841F4A021C14A4D
:100FC000116000E000BF00BF704710B5014600226D
:100FD000002300204A11012A02D1BA4C236806E0FE
:100FE000022A02D1B74C236A01E0B64C636A01F0D1
:100FF0001F02012494401C400CB1012000E000209D
:1010000010BD38B5002000900024002500BF31201D
:10101000FFF7DBFF05460098401C00900098B0F5F4
:10102000A06F01D0002DF2D03120FFF7CEFF08B124
:10103000012400E00024204638BD01460020A14ADA
:10104000106820F0F80040EAC10010607047A04925
:1010500008607047024600209A4B586820F47C10C4
:1010600042EA01031843974B586070479849086655
:10107000704701460020934A506820F0030008435F
:10108000506070478F48406800F00C007047014680
:1010900000208C4A506820F0F000084350607047F0
:1010A00001460020874A506820F4E0600843506001
:1010B000704701460020834A506820F4605040EA9F
:1010C000C1005060704729B17E4A527A02437D4B7D
:1010D0005A7204E07B4A527A82437A4B5A727047C2
:1010E0007B49D8310860704701460020754A506836
:1010F00020F440400843506070470021714A20327C
:101100001170704A82F82010012802D004280AD1F8
:1011100004E001216B4A2032117005E00521694A83
:101120002032117000E000BF00BF704769490860BD
:1011300070476449096A0143624A11627047654910
:1011400044390860704730B5002100220024002394
:101150005C4D6D6805F00C0121B1042905D008290A
:1011600023D105E05C4D056022E05B4D05601FE08A
:10117000544D6D6805F47012524D6D6805F480345D
:10118000022505EB92421CB9544D554305600BE016
:101190004C4D6D6805F400351DB1504D554305604B
:1011A00002E04D4D5543056002E04B4D056000BF28
:1011B00000BF444D6D6805F0F0010909484D6B5CB6
:1011C0000568DD4045603F4D6D6805F4E061090A42
:1011D000434D6B5C4568DD4085603A4D6D6805F4B4
:1011E0006051C90A3E4D6B5C4568DD40C560354DB8
:1011F0006D6805F44041890B3A4D6B5CC568B5FBE1
:10120000F3F5056130BD29B12E4A526902432D4BD9
:101210005A6104E02B4A526982432A4B5A61704753
:1012200029B1284A92690243264B9A6104E0254A73
:1012300092698243234B9A61704729B1214AD2694E
:101240000243204BDA6104E01E4AD26982431D4BFF
:10125000DA61704729B11B4AD2680243194BDA6040
:1012600004E0184AD2688243164BDA60704729B10D
:10127000144A12690243134B1A6104E0114A1269BD
:101280008243104B1A617047124940390860704719
:101290000F49C86470470B49C87170470948406AD4
:1012A00040F0807007494862704701460020054AB7
:1012B00092680A400AB1012000E00020704701490D
:1012C00088727047001002400000FFF8FFFFF6FE32
:1012D000000042428004424200127A0000093D00B0
:1012E000000000201000002010B50446FE48844293
:1012F00008D10121C014FFF7ADFF0021E014FFF772
:10130000A9FFC4E0B4F1804F08D101210846FFF7DE
:10131000AEFF00210120FFF7AAFFB8E0F3488442A6
:1013200008D101210220FFF7A2FF00210220FFF7D0
:101330009EFFACE0EE48844208D101210420FFF773
:1013400096FF00210420FFF792FFA0E0E9488442C5
:1013500008D101210820FFF78AFF00210820FFF7AC
:1013600086FF94E0E448844208D101211020FFF771
:101370007EFF00211020FFF77AFF88E0DF488442DB
:1013800008D101212020FFF772FF00212020FFF764
:101390006EFF7CE0DA48844208D101214014FFF757
:1013A00059FF00216014FFF755FF70E0D5488442D3
:1013B00009D10121C804FFF74DFF00214FF400209F
:1013C000FFF748FF63E0D048844209D101210805B6
:1013D000FFF740FF00214FF48010FFF73BFF56E07E
:1013E000CA48844209D101214805FFF733FF002193
:1013F0004FF40010FFF72EFF49E0C548844208D1A2
:1014000001214020FFF733FF00214020FFF72FFF8D
:101410003DE0C048844208D101218020FFF727FF2A
:1014200000218020FFF723FF31E0BB48844208D130
:1014300001218015FFF71BFF0021A015FFF717FF03
:1014400025E0B648844209D101210804FFF702FFD4
:1014500000214FF48030FFF7FDFE18E0B0488442D1
:1014600009D101214804FFF7F5FE00214FF40030B7
:10147000FFF7F0FE0BE0AB48844208D1012188045D
:10148000FFF7E8FE00214FF48020FFF7E3FE10BDD8
:1014900000220288944B98420ED0994B98420BD070
:1014A000B0F1804F08D0914B984205D0904B9842B4
:1014B00002D0904B984204D14FF68F731A404B885C
:1014C0001A438D4B984207D08C4B984204D04FF66C
:1014D000FF431A40CB881A4302808B8883850B8890
:1014E0000385814B98420BD0854B984208D08B4B9B
:1014F000984205D08A4B984202D08A4B984201D13B
:101500000B7A038601238382704770B50024002282
:101510000023058C4FF6FE7635400584028C8388C7
:10152000048B4FF68F752C40B51E2C400D882C4334
:10153000751E2A400D892A434D882A436A4DA842C8
:101540000BD06F4DA84208D0744DA84205D0744D01
:10155000A84202D0734DA84213D14FF6F7752A4026
:101560004D892A434FF6FB752A408D882A434FF652
:10157000FF652B404FF6FF552B408D892B43CD89BE
:101580002B4383800483CD888586028470BD70B52B
:10159000002400220023058C4FF6EF7635400584A9
:1015A000028C8388048B48F6FF752C404FF6FF456C
:1015B0002C400D884FF6FF7606EA05252C434FF6A2
:1015C000DF752A400D8906EA05152A434D8806EA8B
:1015D00005152A43444DA84202D0494DA8421DD1C9
:1015E0004FF67F752A404D894FF6FF7606EA0515BE
:1015F0002A434FF6BF752A408D8806EA05152A430F
:101600004FF6FF352B404FF2FF752B408D8906EAD0
:1016100085052B43CD8906EA85052B43838004830A
:10162000CD880587028470BD70B500240022002398
:10163000058C4FF6FF6635400584028C8388848BC9
:101640004FF68F752C404FF6FC752C400D882C43BF
:101650004FF6FF552A400D894FF6FF7606EA05251D
:101660002A434D8806EA05252A431F4DA84202D089
:10167000234DA8421DD14FF2FF752A404D894FF6E8
:10168000FF7606EA05252A434FF6FF352A408D8866
:1016900006EA05252A434EF6FF752B404DF6FF75E9
:1016A0002B408D8906EA05152B43CD8906EA0515E1
:1016B0002B4383808483CD888587028470BD70B579
:1016C000002200230024058C4EF6FF763540058469
:1016D000038C8488828B48F6FF752A404FF6FF45BD
:1016E0002A400D8820E00000002C0140000400404A
:1016F00000080040000C00400010004000140040B2
:1017000000340140004C01400050014000540140B1
:1017100000180040001C0040002000400040014034
:1017200000440140004801404FF6FF7606EA0525D7
:101730002A434DF6FF752B400D8906EA05352B43EC
:101740004D8806EA05352B43FA4DA84202D0FA4DE2
:10175000A84208D14BF6FF752C408D894FF6FF76D5
:1017600006EA85152C4384808283CD88A0F84050FA
:10177000038470BD828B4FF2FF331A408283828BC9
:101780004FF6FF7303EA01231A4382837047F0B5D3
:101790000C461546002200210026078C4EF6FF7CE1
:1017A00007EA0C070784828B018C4FF6FF7707EA64
:1017B000043640F6FF473A404FF6FF7707EA052721
:1017C0003A434FF6FF7707EA03373A43D94FB84217
:1017D0000ED0D94FB8420BD0B0F1804F08D0D74FC0
:1017E000B84205D0D64FB84202D0D64FB84206D143
:1017F0004DF6FF77394046F48057394305E047F608
:10180000FF57394044F48057394382830184F0BD47
:10181000828B4FF6F3731A408283828B0A43828352
:101820007047F0B50C461546002200210026078CB3
:101830004FF6FF6C07EA0C070784828B018C4FF68A
:10184000FF7707EA04264FF60C773A404FF6FF770A
:1018500007EA03172F433A43B64FB8420ED0B64FAC
:10186000B8420BD0B0F1804F08D0B44FB84205D089
:10187000B34FB84202D0B34FB84206D14FF6FF572C
:10188000394046F48077394305E04FF2FF5739403D
:1018900044F48077394382830184F0BD028B4FF298
:1018A000FF331A400283028B4FF6FF7303EA0123D2
:1018B0001A4302837047F0B50C46154600220021FA
:1018C0000026078C4FF6EF7C07EA0C070784028B93
:1018D000018C4FF6FF7707EA041640F6FF473A40BF
:1018E0004FF6FF7707EA03373A434FF6FF7707EAE9
:1018F00005273A438F4FB8420ED08F4FB8420BD0D6
:10190000B0F1804F08D08D4FB84205D08C4FB8420F
:1019100002D08C4FB84206D14FF6DF77394046F0FF
:101920001007394305E04FF65F77394044F0100760
:10193000394302830184F0BD028B4FF6F3731A40E2
:101940000283028B0A4302837047F0B50C461546AA
:1019500000220021068C4FF6FE773E400684028B63
:10196000018C4FF60C7632407E1C06EA03162E439D
:101970003243704EB0420ED06F4EB0420BD0B0F139
:10198000804F08D06D4EB04205D06D4EB04202D0AF
:101990006C4EB04206D14FF6FD76314044F0010660
:1019A000314305E04FF6F576314044F0010631430E
:1019B00002830184F0BD70B505460C465D48854242
:1019C0000ED05D4885420BD0B5F1804F08D05B4802
:1019D000854205D05A48854202D05A48854200D1F6
:1019E00000E000BF208850B92389A288618828467A
:1019F000FFF7ABFFE1882846FFF79EFF25E0208830
:101A000004280AD12389A28861882846FFF753FF5A
:101A1000E1882846FFF742FF17E0208808280AD10E
:101A20002389A28861882846FFF7FBFEE1882846C3
:101A3000FFF7EEFE09E02389A28861882846FFF7B8
:101A4000A6FEE1882846FFF795FE70BD2DE9F0411E
:101A500005460C4600260127608808B9022600E0EA
:101A60000026A088012801D1022700E00127208854
:101A7000A0B92389A28861882846FFF766FFE1881C
:101A80002846FFF759FF23893A4631462846FFF793
:101A900012FFE1882846FFF701FF13E02389A2889F
:101AA00061882846FFF707FFE1882846FFF7F6FE22
:101AB00023893A4631462846FFF747FFE188284602
:101AC000FFF73AFFBDE8F0810A884B881A438B88FC
:101AD0001A43CB881A430B891A434B891A438B89C3
:101AE0001A43A0F8442070474FF6FF71818000210F
:101AF0000180C180418001727047002101804180D6
:101B00008180C180018141818181C1817047002133
:101B100001804180012181800021C18001817047C5
:101B20000021018041808180C180018141818181CA
:101B300070470000002C01400034014000040040C8
:101B400000080040000C004021B1028842F0010270
:101B5000028004E002884FF6FE731A40028070474C
:101B600031B1B0F8442042F40042A0F8442005E02E
:101B7000B0F84420C2F30E02A0F8442070471AB116
:101B800083890B43838102E083898B438381704780
:101B90008182704741EA0203A0F8483070471AB1C9
:101BA00083890B43838102E083898B438381704760
:101BB00001894FF6F8721140018170470A460021F1
:101BC00001894FF68F73194011430181704730B579
:101BD00004460D4629462046FFF7F0FF208940F0D5
:101BE0000700208130BD2DE9F04104460D46164620
:101BF0001F46602D06D13B46012231462046FFF7A5
:101C00005AFE05E03B46012231462046FFF79DFE85
:101C100029462046FFF7D2FF208940F007002081A7
:101C2000BDE8F08130B50C4600210189C9B24FF6FC
:101C3000FF7505EA0325154325432943018130BD7E
:101C40002DE9F04105460E461746984600244346C6
:101C50003A4631462846FFF7E5FF2C894FF6F870E3
:101C6000044044F007044FF68F70044044F07004C1
:101C70002C81BDE8F081F0B504460D4616461F469E
:101C80003B46324629462046FFF7CCFF208940F4E8
:101C900080402081F0BD0185828270470A46002184
:101CA00001884FF68F731940114301807047F0B5DA
:101CB0000C4615461E460021002200230189028B96
:101CC000038C4FF6F877394021434FF6FC473A40F2
:101CD00040F201173A434FF6DD773B404FF6FF776E
:101CE00007EA06172F433B43018102830384F0BDBB
:101CF0000A460021018B4FF68F731940114301836F
:101D000070470A460021018B48F6FF7319404FF6D1
:101D1000FF7303EA02231943018370470A46002137
:101D2000818B4FF68F7319401143818370470A46A8
:101D30000021818B48F6FF7319404FF6FF7303EAC9
:101D4000022319438183704721B1028842F0800247
:101D5000028004E002884FF67F731A4002807047C9
:101D600021B1828842F00402828004E082884FF62A
:101D7000FB731A408280704721B1828842F00802CA
:101D8000828004E082884FF6F7731A4082807047A1
:101D900021B1828842F00102828004E082884FF6FD
:101DA000FE731A40828070470A460021018B4FF66D
:101DB000F77319401143018370470A460021018BD4
:101DC0004FF2FF7319404FF6FF7303EA02231943E2
:101DD000018370470A460021818B4FF6F773194043
:101DE0001143818370470A460021818B4FF2FF73B4
:101DF00019404FF6FF7303EA0223194381837047AA
:101E00000A460021018B4FF6FB73194011430183F1
:101E100070470A460021018B4FF6FF3319404FF6F9
:101E2000FF7303EA02231943018370470A46002126
:101E3000818B4FF6FB7319401143818370470A462B
:101E40000021818B4FF6FF3319404FF6FF7303EAF1
:101E500002231943818370470A460021018B4FF604
:101E60007F7319401143018370470A460021018B9B
:101E7000C1F30E014FF6FF7303EA022319430183F6
:101E800070470A460021818B4FF67F73194011433A
:101E9000818370470A460021818BC1F30E014FF602
:101EA000FF7303EA02231943818370470A46002126
:101EB000018C4FF6FD7319401143018470470A46A7
:101EC0000021018C4FF6F7731940114301847047CC
:101ED0000A460021018C4FF6DF7319404FF6FF735D
:101EE00003EA02131943018470470A460021018C5A
:101EF0004FF67F7319404FF6FF7303EA021319433D
:101F0000018470470A460021018C4FF6FF531940A7
:101F10004FF6FF7303EA02231943018470470A4610
:101F20000021018C4FF2FF7319404FF6FF7303EA53
:101F300002231943018470470A460021018C4DF6A3
:101F4000FF7319404FF6FF7303EA0233194301840C
:101F5000704730B5002301248C40A3B2048C9C430D
:101F60000484048C02FA01F5ADB22C43048430BD24
:101F700030B5002304248C40A3B2048C9C43048419
:101F8000048C02FA01F5ADB22C43048430BD70B567
:101F90000346002000241846183001258D40ACB2BD
:101FA0001D8CA5431D8409B1082909D100EB6100EE
:101FB000056825F0700505600568154305600EE0AD
:101FC0000D1FC5F34E052844056825F4E04505605E
:101FD00005684FF6FF7606EA02263543056070BDB8
:101FE00021B1028842F00202028004E002884FF62A
:101FF000FD731A400280704721B1028842F004024A
:10200000028004E002884FF6FB731A40028070479A
:1020100021B1828842F08002828004E082884FF6FB
:102020007F731A408280704702884FF6F7731A4018
:10203000028002880A430280704782884FF68F73BD
:102040001A40828082880A438280704702894FF654
:10205000F8731A40028102890A430281704702899B
:102060004FF67F731A40028102890A43028170474A
:1020700081847047818570478186704701877047EA
:1020800081877047A0F84010704702884FF6FF43E1
:102090001A40028002880A43028070470146888EF7
:1020A00070470146088F70470146888F7047014688
:1020B000B1F8400070470146888C70470146088D92
:1020C000704702460020138A0B400BB1012000E04C
:1020D00000207047CA430282704730B50246002094
:1020E00000230024158A05EA0103958905EA010405
:1020F00013B10CB1012000E0002030BDCA430282C0
:102100007047000010B50446FB48844209D1012104
:102110008803FFF79FF800214FF48040FFF79AF8FB
:1021200032E0F648844209D101214804FFF79FF8C4
:1021300000214FF40030FFF79AF825E0F048844280
:1021400009D101218804FFF792F800214FF4802083
:10215000FFF78DF818E0EB48844209D10121C8044B
:10216000FFF785F800214FF40020FFF780F80BE01F
:10217000E548844208D101210805FFF778F80021DD
:102180004FF48010FFF773F810BD2DE9F04786B0CB
:1021900005460E460024A24600BFA1460027B0898E
:1021A00000B100BF2F462C8A4CF6FF700440F08827
:1021B00004432C82AC894EF6F3100440B088318978
:1021C0000843718908430443AC81AC8A4FF6FF4051
:1021D0000440B0890443AC8201A8FEF7B4FFC648AE
:1021E000874202D1DDF810A001E0DDF80CA0A8893B
:1021F00000F4004040B10AEBCA0000EB0A1031685D
:102200004900B0FBF1F807E00AEBCA0000EB0A1046
:1022100031688900B0FBF1F86420B8FBF0F00401EC
:102220002009642101FB1089A88900F4004040B115
:10223000322000EBC900B0FBF1F000F007000443CE
:1022400008E0322000EB09106421B0FBF1F000F04F
:102250000F0004432C8106B0BDE8F0874FF41651FF
:10226000016000218180C18001810C214181002118
:102270008181704710B502460020108A4FF2FF039B
:1022800018400B884C8823438C882343CC882343F5
:102290001843108210BD0021018041808180C180DF
:1022A000704721B1828942F40052828104E0828920
:1022B0004DF6FF731A4082817047F0B50346002443
:1022C00000260025002040F66A17B94200D100BF61
:1022D0001846C1F3421401F01F06012707FA06F55C
:1022E000012C01D10C3004E0022C01D1103000E0AF
:1022F00014301AB107682F43076002E00768AF4344
:102300000760F0BD1AB1838A0B43838202E0838A9F
:102310008B4383827047028A4FF6F0731A40028221
:10232000028A0A430282704782894FF2FF731A4081
:10233000828182890A438281704721B1828942F079
:102340000202828104E082894FF6FD731A40828185
:102350007047028A4FF6DF731A400282028A0A43EC
:102360000282704721B1028A42F48042028204E074
:10237000028A4BF6FF731A4002827047C1F30802CB
:102380008280704701468888C0F3080070478189C1
:1023900041F0010181817047028BD2B20283028B2E
:1023A00042EA012202837047028B02F47F420283D9
:1023B000028B0A430283704721B1828A42F02002D5
:1023C000828204E0828A4FF6DF731A40828270476D
:1023D00021B1828A42F01002828204E0828A4FF6A2
:1023E000EF731A408282704721B1828A42F008025C
:1023F000828204E0828A4FF6F7731A408282704725
:1024000021B1828942F40042828103E08289C2F3D1
:102410000E028281704721B1828A42F40062828278
:1024200004E0828A4FF2FF731A4082827047828AE8
:102430004FF6FB731A408282828A0A438282704777
:1024400021B1828A42F00202828204E0828A4FF63F
:10245000FD731A408282704702460020B1F5007F6A
:1024600000D100BF13880B400BB1012000E0002019
:10247000704701F40072B2F5007F00D100BFCA437B
:102480000280704770B5024600240023002500201A
:1024900040F66A16B14200D100BFC1F3421501F007
:1024A0001F03012606FA03F3012D02D1968933405A
:1024B00006E0022D02D1168A334001E0968A3340AD
:1024C0000C12012606FA04F41688344013B10CB13C
:1024D000012000E0002070BD10B50022002340F66E
:1024E0006A14A14200D100BF0A1201249440A3B291
:1024F000DC43048010BD000000380140004400406F
:1025000000480040004C0040005000400CB5002046
:10251000019000906C48006840F480306A4908607F
:1025200000BF6948006800F4003000900198401C2A
:102530000190009818B90198B0F5A06FF1D16248E8
:10254000006800F4003010B10120009001E000208C
:1025500000900098012843D15C48006840F01000CA
:102560005A4908600846006820F0030008600846E1
:10257000006840F0020008605348406852494860D3
:102580000846406848600846406840F480604860FB
:102590000846406820F47C1048600846406840F4D3
:1025A000E81048600846006840F08070086000BF8E
:1025B0004548006800F000700028F9D042484068A3
:1025C00020F00300404948600846406840F002009F
:1025D000486000BF3C48406800F00C000828F9D172
:1025E0000CBD10B5FFF792FF10BD10B5364800685E
:1025F00040F001003449086008464068344908400A
:102600003149486008460068324908402E49086050
:102610000846006820F4802008600846406820F4DE
:10262000FE0048604FF41F008860FFF7DAFF4FF0AC
:1026300000602949086010BD10B50021002000226B
:10264000214B5B6803F00C0121B1042906D0082955
:1026500028D107E0214B224C236027E01F4B204C60
:10266000236023E0184B5B6803F47010164B5B6823
:1026700003F48032022303EB904022B9194B434309
:10268000174C23600DE0104B5B6803F4003323B15B
:10269000144B4343124C236003E0104B4343104C54
:1026A000236003E00D4B0E4C236000BF00BF064BC0
:1026B0005B68C3F303130C4CE15C094B1B68CB4014
:1026C000074C236010BD00000010024000200240B3
:1026D0000000FFF8FFFFF6FE08ED00E000127A00B0
:1026E0001400002000093D00180000200648804723
:1026F00006480047FEE7FEE7FEE7FEE7FEE7FEE7E7
:10270000FEE7FEE7FEE7FEE7EB250008ED00000828
:1027100000B587B001214FF40170FEF781FD4FF441
:102720000040FEF7E1FC2020ADF8040000208DF809
:10273000070001A92848FEF7B7FA002002908DF89B
:102740000C0001208DF80D004FF460200490002053
:10275000059005208DF8180002A92048FDF765FDB9
:102760000523012219461D48FDF7F7FD01211B48ED
:10277000FDF787FD1948FDF7A6FD00BF1748FDF7D7
:10278000A7FD0028FAD11548FDF7ACFD00BF13489E
:10279000FDF7ADFD0028FAD101211048FDF7B1FD8C
:1027A00007B000BD2DE9F0470024A1460B48FDF716
:1027B0003BFE8146484602F0FBFD0746084A094BAE
:1027C00002F0FBFC054602F0A9FE0446204602F09A
:1027D00015FE80B2BDE8F0870008014000240140EA
:1027E000C7BAB88D06F0DE3F10B501210846FEF7E6
:1027F00017FD01213948FEF728FB10BD08B501215E
:102800000820FEF70DFD4FF48050ADF800001020B9
:102810008DF8030003208DF8020069463048FEF76A
:1028200043FA08BD10B52F48007838B901202D496A
:10283000087001032A48FEF7E4FA07E0002029495E
:1028400008704FF480512648FEF7DDFA10BD264A85
:10285000002105E012F8013B00F8013B4B1CD9B206
:102860000C29F7DB704710B588B06846FFF7EFFF1B
:102870000C21684601F026F9044622461BA1684651
:1028800003F026FA684601F096F8642001F00DF98D
:1028900008B010BD10B500F0AFFF002000F0E5FF5C
:1028A00000F0A0FE00F01EFB00F024FB00F081FB16
:1028B00000F03EF900F000FE00F0EAFB4FF4FA7081
:1028C00001F0F3F810A001F076F8012000F0CDFF40
:1028D000142001F0EAF8FFF7C6FF10BD0002300037
:1028E000000C014028000020E8F7FF1F0D0A4154AA
:1028F0002B4E414D454D69616F774C6162732D25BB
:102900003034580D0A0000000D0A41542B42415545
:1029100044380D0A0000000008B50720009002E0CE
:102920000098401E009000980028F9D108BD10B50D
:102930004FF40070E549086040100860FFF7ECFFB5
:10294000E2480838006808B9012000E0002000F4DF
:10295000007008B1002010BD4FF40070DB49091D64
:102960000860FFF7D9FFD9480838006800F4007004
:1029700008B10020EFE74FF40070D449091D08604A
:10298000FFF7CAFF0120E6E710B54FF48070CF498A
:10299000091D0860FFF7C0FF4FF40070CB49091D07
:1029A0000860FFF7B9FF4FF48070C8490860FFF76F
:1029B000B3FF4FF40070C5490860FFF7ADFF10BDCD
:1029C00010B54FF48070C149091D0860FFF7A4FFDE
:1029D0004FF40070BD49091D0860FFF79DFF4FF4DB
:1029E0008070BA490860FFF797FF4FF48070B749CD
:1029F000091D0860FFF790FF10BD10B54FF48070FF
:102A0000B249091D0860FFF787FF4FF40070AF4916
:102A10000860FFF781FF4FF48070AC490860FFF752
:102A20007BFF4FF48070A949091D0860FFF774FF10
:102A300010BD10B54FF48070A449091D0860FFF760
:102A40006BFF4FF40070A1490860FFF765FF4FF47A
:102A500080709E490860FFF75FFF9C480838006857
:102A600000F4007030B14FF480709849091D08607F
:102A7000002010BD4FF480709449091D08600120AA
:102A8000F7E770B5044608251DE04FF480708F49C4
:102A9000091D0860FFF740FF04F0800020B14FF4EB
:102AA00000708A49086004E04FF400708749091DEE
:102AB00008606006040EFFF72FFF4FF48070834913
:102AC0000860FFF729FF281EA5F10101CDB2DCD176
:102AD0004FF480707D49091D086070BD70B50825F0
:102AE0000024A8017949086016E06006040E4FF43E
:102AF00080707649091D0860FFF70EFF4FF4807063
:102B000072490860FFF708FF70480838006800F451
:102B1000007008B144F00104281EA5F10101CDB2F6
:102B2000E3D14FF480706949091D0860204670BDEB
:102B300008B501210820FEF773FB4FF44070ADF893
:102B4000000002208DF8020014208DF80300694671
:102B50005E481038FEF7A8F808BD70B504460D466B
:102B60001646FFF7E4FE08B9002070BD002141EAD7
:102B70004401C8B2FFF785FFFFF75BFF18B9FFF705
:102B800003FF0020F1E72846FFF77BFFFFF751FF27
:102B90003046FFF776FFFFF74CFFFFF7F5FE012009
:102BA000E3E72DE9F04105460E4617469846FFF744
:102BB000BEFE10B90020BDE8F081002141EA4501C8
:102BC000C8B2FFF75EFFFFF734FF18B9FFF7DCFE6E
:102BD0000020F0E73046FFF754FFFFF72AFF0024FC
:102BE0000BE018F80400FFF74CFFFFF722FF18B9BD
:102BF000FFF7CAFE0020DEE7641CBC42F1DBFFF7F2
:102C0000C3FE0120D7E72DE9F04105460F461446E3
:102C10001E46FFF78CFE10B90020BDE8F0810021B0
:102C200041EA4501C8B2FFF72CFFFFF702FF18B9D0
:102C3000FFF7AAFE0020F0E73846FFF722FFFFF774
:102C4000F8FEFFF774FE012101EB4501C8B2FFF762
:102C500018FFFFF7EEFE0CE0FFF740FF3070012C8D
:102C600002D1FFF7CAFE01E0FFF7AAFE761C601E44
:102C7000C4B2002CF0D1FFF787FE0120CDE72DE98B
:102C8000F04104460D4616461F463B46324629464D
:102C90002046FFF786FF10B10020BDE8F0814FF01D
:102CA000FF30FAE72DE9F04104460D4616461F466F
:102CB0003B46324629462046FFF7A5FF10B10020CB
:102CC000BDE8F0814FF0FF30FAE70000100C014042
:102CD00008B501210420FEF7A3FA01210820FEF720
:102CE0009FFA48208DF803004FF40140ADF8000032
:102CF00069463048FDF7D8FF2820ADF80000694646
:102D00002D48FDF7D1FF08BD10B5002408212A4841
:102D1000FEF75DF810B144F0040418E020212648C5
:102D2000FEF755F810B144F0010410E04FF40041F3
:102D30002048FEF74CF810B144F0100407E04FF4BF
:102D400080711C48FEF743F808B144F04004204667
:102D500010BD10B5002420211748FEF738F80128CF
:102D600001D1601CC4B208211348FEF730F80128D5
:102D700001D1601CC4B24FF400410E48FEF727F8A1
:102D8000012801D1601CC4B24FF480710948FEF7DC
:102D90001EF8012801D1601CC4B2042C02D101200C
:102DA0000649087010BD0548007808B90120704731
:102DB0000020FCE700080140000C01402900002031
:102DC00008B501210420FEF72BFA01210820FEF7A7
:102DD00027FA1820ADF8000010208DF8030003201A
:102DE0008DF802006946A648FDF75EFF0320ADF8A6
:102DF00000006946A348FDF757FF1821A048FEF7D9
:102E000000F803219F48FDF7FCFF08BD08B501212C
:102E10000220FEF712FA01210420FEF701FA012137
:102E20000820FEF7FDF9C020ADF8000018208DF84D
:102E3000030003208DF8020069469148FDF734FF36
:102E400008BDF0B587B0002700240025002640F219
:102E5000E730ADF814000320ADF810000020ADF805
:102E60001600ADF8120004A98748FEF711FB602098
:102E7000ADF800000120ADF80200ADF806700020AA
:102E8000ADF8080069468048FEF73FFB08217E4800
:102E9000FEF78AFFADF8064069467B48FEF777FBF0
:102EA00008217948FEF789FFADF806506946764853
:102EB000FEF7BAFB08217448FEF78CFFADF80660F8
:102EC00069467148FEF7FBFB08216F48FEF78BFF50
:102ED00001216D48FEF738FF01216B48FEF734FEF3
:102EE00007B0F0BD10B5FFF76BFFFFF78FFFFFF7DF
:102EF000A8FF10BD00B589B001210846FEF79DF975
:102F000001210420FEF78CF902A8FDF758FF0320E9
:102F1000ADF8080004208DF80B0002A95848FDF711
:102F2000C3FE1C208DF8040000208DF8050003204E
:102F30008DF8060001208DF8070001A8FDF7E5F8DF
:102F40004FF08040FEF7D0F906A8FEF7CDFD002037
:102F5000ADF818004FF6FF70ADF81C000020ADF87A
:102F60001E00ADF81A0006A94FF08040FEF790FA57
:102F700000231A4603214FF08040FEF798FE03A875
:102F8000FEF7C5FD0620ADF8140003A94FF0804000
:102F9000FEF711FD01218807FFF79CF80122114679
:102FA0009007FEF7ECFD01218807FEF7CDFD09B083
:102FB00000BD00B589B001210420FEF73EF90121D2
:102FC0000820FEF72DF902A8FDF7F9FEC020ADF8A4
:102FD000080004208DF80B0002A92A48FDF764FEC2
:102FE0001E208DF8040000208DF8050002208DF8C9
:102FF000060001208DF8070001A8FDF786F8234898
:10300000FEF772F906A8FEF76FFD0020ADF8180074
:103010004FF6FF70ADF81C000020ADF81E00ADF8B3
:103020001A0006A91948FEF733FA00231A460321AD
:103030001648FEF73CFE03A8FEF769FD0620ADF832
:10304000140003A91148FEF7B6FC01210F48FFF751
:1030500041F8012211460D48FEF791FD01210B4870
:10306000FEF772FD09B000BD10B501218807FFF71A
:1030700031F810BD10B501210448FFF72BF810BD41
:1030800000080140000C014000040040000800401E
:103090001CB53BA103C9CDE900016B4601226B21A0
:1030A0006820FFF7ECFD0DF10103012219216820D2
:1030B000FFF7E5FD0DF1020301221A216820FFF759
:1030C000DEFD0DF1030301221B216820FFF7D7FD70
:1030D00001AB01221C216820FFF7D1FD1CBD38B5D2
:1030E00004466B46022221466820FFF7DBFD9DF86F
:1030F00001009DF8001000EB012000B238BD70B552
:103100000446002524B93B20FFF7E9FF05460CE003
:10311000012C04D13D20FFF7E2FF054605E0022C1B
:1031200003D13F20FFF7DBFF0546284670BD70B591
:103130000446002524B94320FFF7D1FF05460CE0E3
:10314000012C04D14520FFF7CAFF054605E0022CFB
:1031500003D14720FFF7C3FF0546284670BD10B5D1
:103160000020FFF7E4FF084908800120FFF7C7FFB0
:10317000064908800220FFF7C2FF0549088010BDFC
:1031800000070418010000002A0000202C00002085
:103190002E00002008B501210820FEF741F801218A
:1031A0001020FEF73DF84FF46040ADF8000010200D
:1031B0008DF8030003208DF802006946FE48FDF7F4
:1031C00073FD4FF40050ADF800006946FB48FDF771
:1031D0006BFD08BD70B504460E462EB14FF400518C
:1031E000F648FDF70EFE04E04FF40051F348FDF7FA
:1031F0000AFE00251BE04FF40041EF48FDF703FEF7
:1032000004F0800028B14FF48041EB48FDF7F9FD50
:1032100004E04FF48041E848FDF7F5FD4FF400412C
:10322000E548FDF7EEFD6006040E681CC5B2082DEA
:10323000E1DB4FF40051E148FDF7E3FD70BD70B5EF
:1032400004460D4605F1B001C8B20021FFF7C2FFE8
:10325000102141EA14100021FFF7BCFF04F00F0118
:1032600041F001000021FFF7B5FF70BD10B500214E
:103270008D20FFF7AFFF00211420FFF7ABFF0021E7
:10328000AF20FFF7A7FF10BD10B500218D20FFF77D
:10329000A1FF00211020FFF79DFF0021AE20FFF7C6
:1032A00099FF10BD70B5002419E004F1B001C8B257
:1032B0000021FFF78FFF00210846FFF78BFF002159
:1032C0001020FFF787FF002505E001210020FFF710
:1032D00081FF681CC5B2802DF7DB601CC4B2082CCE
:1032E000E3DB70BD2DE9F04106460C4617464FF072
:1032F00000080025A7F1200000F0FF087F2E02DD66
:103300000026A01CC4B2601CC1B23046FFF797FF74
:1033100000250AE008EB4801A94A02EB4101485D9B
:103320000121FFF757FF681CC5B2062DF2DBBDE88F
:10333000F0812DE9F04104460F46154600260DE0C8
:10334000AA5D39462046FFF7CDFFA01DC4B2782CF8
:1033500002DD0024B81CC7B2701CC6B2A85D0028EC
:10336000EED1BDE8F0812DE9F04180460E461546CC
:10337000002731464046FFF762FF00240AE0914AE9
:1033800002EB8511085D0121FFF724FF781CC7B20D
:10339000601CC4B2102CF2DB701CC1B24046FFF7B7
:1033A0004EFF00240CE06900491C864A02EB4111E3
:1033B000085D0121FFF70EFF781CC7B2601CC4B284
:1033C000102CF0DBBDE8F0812DE9F05F06460F46DA
:1033D00090461C46DDF828A04FF0000BE11704EBE7
:1033E0005171C910A4EBC10131B92046E11704EBBA
:1033F0005171C1F3C70506E02046E11704EB517196
:10340000C910491CCDB23D4615E029463046FFF7AC
:1034100016FFB1460BE059460BF1010B1AF80100FB
:103420000121FFF7D7FE09F1010000F0FF09C145B6
:10343000F1DB681CC5B2A542E7DBBDE8F09F2DE9D2
:10344000F05F06460F4690461C46DDF828A04FF078
:10345000000BE11704EB5171C910A4EBC10131B9A4
:103460002046E11704EB5171C1F3C70506E0204681
:10347000E11704EB5171C910491CCDB23D4617E06C
:1034800029463046FFF7DBFEB1460DE059460BF109
:10349000010B1AF80110C943C8B20121FFF79AFEC7
:1034A00009F1010000F0FF09C145EFDB681CC5B25E
:1034B000A542E5DBBDE8F09F10B5FFF76BFE4FF4CA
:1034C00000513D48FDF79FFC642000F0EEFA4FF4F8
:1034D00000513948FDF795FC0021AE20FFF77AFE38
:1034E00000210846FFF776FE00211020FFF772FE4C
:1034F00000214020FFF76EFE00218120FFF76AFEC9
:103500000021CF20FFF766FE0021A120FFF762FE19
:103510000021C820FFF75EFE0021A620FFF75AFE1B
:103520000021A820FFF756FE00213F20FFF752FEA2
:103530000021D320FFF74EFE00210846FFF74AFE88
:103540000021D520FFF746FE00218020FFF742FE34
:103550000021D920FFF73EFE0021F120FFF73AFEBF
:103560000021DA20FFF736FE00211220FFF732FE9D
:103570000021DB20FFF72EFE00214020FFF72AFE6E
:1035800000212020FFF726FE00210220FFF722FE67
:1035900000218D20FFF71EFE00211420FFF71AFEE8
:1035A0000021A420FFF716FE0021A620FFF712FE3F
:1035B0000021AF2008E00000000C01400010014095
:1035C000926A000830000020FFF704FE0021AF20BF
:1035D000FFF700FEFFF766FE00210846FFF72FFE0B
:1035E00010BD000000B589B00121C802FDF718FE2A
:1035F00001210420FDF714FE4FF40060ADF8140023
:1036000048208DF8170005A97548FDF74DFB0420EB
:10361000ADF8140010208DF8170002208DF8160068
:1036200005A96F48FDF740FB4FF6FF70ADF80C00A1
:103630004720ADF808000020ADF80E00ADF80A00F4
:1036400002A96848FDF724FF0C20ADF818000020FF
:10365000ADF81A000120ADF81C000020ADF81E00E6
:10366000ADF8200006A95F48FEF7A5F91B208DF8EC
:10367000040002208DF8050000208DF806000120CE
:103680008DF8070001A8FCF740FD012211215548E3
:10369000FEF775FA01215348FEF756FA09B000BD4E
:1036A00010B504214E48FDF7ACFB142000F0F0F9F2
:1036B00004214B48FDF7A7FB4B48007800F0800041
:1036C000E8B14948007800F03F00484908600846E2
:1036D00000880004086008460068454909680844F5
:1036E0004249086008460068AA21484342F2107126
:1036F00090FBF1F03D49086000203B49086010BD97
:1037000010B53948007800F0800000284CD1012124
:103710003448FEF7E2FCD0B13348007800F04000B6
:10372000A8B13148007800F03F003F280AD12E4868
:10373000006840F080002C4908604FF6FF702C496B
:10374000086004E028480068401C274908601021F0
:103750002448FEF7C2FC38B32348007800F040004C
:1037600078B12148006840F080001F4908601D487A
:10377000FEF79DFC1E49086000211A48FEF7DCFB9D
:1037800012E0002018490860194908600021154816
:10379000FEF76EFC1448006840F0400012490860D3
:1037A00002211048FEF7C8FB11210E48FEF7A6FCC7
:1037B00010BD10B54FF400610948FDF708FB58B97A
:1037C000322000F072F94FF400610548FDF7FFFA6E
:1037D00010B901200749086010BD0648006870470D
:1037E00000080140002C0140F0020020F8020020F7
:1037F000F4020020FC02002000B585B0012144F253
:103800000400FDF70DFD4FF40070ADF81000182016
:103810008DF8130003208DF8120004A96E48FDF7FF
:1038200043FA4FF48060ADF8100004208DF81300C7
:1038300004A96948FDF738FA4FF4E1300090002000
:10384000ADF80400ADF80600ADF80800ADF80C00C6
:103850000C20ADF80A0069466048FEF796FC01218D
:103860005E48FEF71EFD05B000BD10B586B00446EB
:1038700001218804FDF7E1FC01210820FDF7D0FCBF
:103880004FF48060ADF8140018208DF81700032065
:103890008DF8160005A95248FDF706FA4FF40060AE
:1038A000ADF8140004208DF8170005A94C48FDF769
:1038B000FBF91CB94FF41650019004E0012C02D121
:1038C0004FF4E13001900020ADF80800ADF80A0097
:1038D000ADF80C00ADF810000C20ADF80E0001A9F9
:1038E0004048FEF752FC012240F225513D48FEF7C8
:1038F000E4FC01213B48FEF7D4FC4FF4A060FCF748
:10390000FFFB27208DF8000000208DF80100042027
:103910008DF8020001208DF803006846FCF7F5FBE6
:1039200006B010BD10B5044621462C48FEF726FD12
:1039300000BF40212948FEF78FFD0128F9D110BDB5
:1039400070B504460D46002605E014F8010BFFF79C
:10395000E9FF701C86B2AE42F7DB70BD70B504465D
:10396000204601F091FA86B2002505E014F8010B1B
:10397000FFF7D8FF681C85B2B542F7DB70BD10B504
:10398000044621461748FEF7F9FC00BF40211548C0
:10399000FEF762FD0128F9D110BD70B504460D4651
:1039A000002605E014F8010BFFF7E9FF701C86B252
:1039B000AE42F7DB70BD70B50446204601F064FAF4
:1039C00086B2002505E014F8010BFFF7D8FF681C4C
:1039D00085B2B542F7DB70BD0008014000380140F8
:1039E000000C01400048004000200DE0244931F85F
:1039F0001010002906DD224931F81010491E204A16
:103A000022F81010411CC8B20528EFDB704770B5D2
:103A1000FEF712FE1B4800684FF47A72B0FBF2F119
:103A2000B1F1807F01D301201DE021F07F40401ED5
:103A30004FF0E022506150170F22002807DA1307D9
:103A40001D0E114B00F00F04241F1D5503E013073A
:103A50001C0E0E4B1C5400BF00204FF0E022906162
:103A600007201061002008B100BFFEE74FF0E02002
:103A7000006940F001004FF0E021086170BD0000D6
:103A80002C0400201400002018ED00E000E400E009
:103A9000014605E0002001E0421CD0B20A28FBDB11
:103AA0000A1EA1F10101F5D1704710B5044603E0EB
:103AB0004FF47A70FFF7ECFF201EA4F10104F7D158
:103AC00010BD704730B502460023002000BF04E05F
:103AD00012F8014B60405C1CE3B28B42F8DB30BD56
:103AE000F0B505460E461446002731462846FFF736
:103AF000E9FF0746A74201D10120F0BD0020FCE705
:103B000030B502460020002305E012F8015B2C18B6
:103B1000E0B25C1CE3B28B42F7DB30BD30B502464D
:103B20000B464FF6FF70002112E0555C6840002400
:103B30000AE000F0010525B14AF2010585EA6000BE
:103B400000E04010651CECB2082CF2DB4D1CE9B221
:103B50009942EADB30BD00002DE9F0478CB0FA490C
:103B6000FA48006801F0BAF9824601F093FC044675
:103B70000D46F549F648006801F0B0F9824601F0BB
:103B800089FC06460F46F049F248006801F0A6F9A4
:103B9000824601F07FFC804642460B46EEA104A817
:103BA000CDE90067CDE9024502F092F804A8FFF7DD
:103BB00002FF0CB0BDE8F0872DE9F0478CB08246DB
:103BC000BAF1000F1BD1E949886801F063FC044693
:103BD0000D46E649486801F05DFC06460F46E3499C
:103BE000086801F057FC804642460B46E0A104A855
:103BF000CDE90067CDE9024502F06AF81DE0BAF1AF
:103C0000010F1AD1DF49886801F044FC04460D46D3
:103C1000DC49486801F03EFC06460F46D949086871
:103C200001F038FC804642460B46D7A104A8CDE9F6
:103C30000067CDE9024502F04BF804A8FFF7BBFE90
:103C40000CB0BDE8F08700B589B0D448D44BD54A54
:103C5000D5A1009001A802F03BF801A8FFF7ABFE48
:103C600009B000BD00B589B0D348008800EB8000E2
:103C70004200D2480388D2A101A802F029F801A885
:103C8000FFF799FE09B000BD2DE9FC5F06463446FA
:103C9000E0E12078232877D1CCA1601C01F0FCF86A
:103CA000009002F0E1FE074601F0DBFBC5B2002DFB
:103CB0006ADD642D68DA0A2D14DA6119081DC4A1C1
:103CC00001F0EAF8009002F0CFFE074601F0C9FBD0
:103CD00000F0FF094A462946E01CFFF701FF824633
:103CE000E41C13E06119481DB9A101F0D5F800905A
:103CF00002F0BAFE074601F0B4FB00F0FF094A46A5
:103D00002946201DFFF7ECFE8246241DBAF1000F64
:103D10003AD0B0480078012865D1AFA1204601F023
:103D2000A1F820B10021084600F0C4FD5BE0ABA182
:103D3000204601F097F840B3A4A1204601F0ACF86A
:103D4000A2A1002001F0A8F8009002F08DFE074625
:103D500001F0E4FB8346A2A1002001F09DF8009051
:103D600002F082FE074601F0D9FB01909D490198BF
:103D700001F00CF907469B49584601F007F98046C7
:103D8000394600F097FD2EE063E1FFE796A120465B
:103D900001F068F838B38DA1204601F07DF88BA1C1
:103DA000002001F079F8009002F05EFE074601F075
:103DB000B5FB83468AA1002001F06EF8009002F066
:103DC00053FE074601F0AAFB01904FF08041584690
:103DD00001F00EF907468549019801F009F980467E
:103DE000394600F067FD82A1204601F03BF818B18A
:103DF0000120784908702CE17EA1204601F032F8BC
:103E000018B103207349087023E17BA1204601F01B
:103E100029F838B104206F4908707449002000F077
:103E200049FD16E175A1204601F01CF818B10220E9
:103E3000684908700DE172A1204601F013F870B3D3
:103E400062A1204601F028F860A1002001F024F8CA
:103E5000009002F009FE074601F060FB434908604C
:103E60005AA1002001F018F8009002F0FDFD07466D
:103E700001F054FB3D49486059A1002001F00CF8C5
:103E8000009002F0F1FD074601F048FB37498860D9
:103E9000002000F0E8FE0020FFF78EFED9E0FFE7EB
:103EA00058A1204600F0DEFF70B348A1204600F084
:103EB000F3FF46A1002000F0EFFF009002F0D4FDD8
:103EC000074601F02BFB2F49086040A1002000F0BD
:103ED000E3FF009002F0C8FD074601F01FFB2949EF
:103EE00048603FA1002000F0D7FF009002F0BCFD29
:103EF000074601F013FB23498860012000F0B3FE60
:103F00000120FFF759FEA4E03FA1204600F0AAFFE0
:103F100018B10020FFF750FE9BE03CA1204600F0C6
:103F2000A1FF18B10120FFF747FE92E038A120461B
:103F300000F098FF30B1002000F0B0FE0020FFF745
:103F40003BFE86E066E0000000003443780300207A
:103F50007C03002080030020562C252E30662C2563
:103F60002E30662C252E30660D0A00004C030020F2
:103F700041502C252E32662C252E32662C252E32D1
:103F8000660D0A005803002053502C252E32662C53
:103F9000252E32662C252E32660D0A00B4720008DA
:103FA000AF720008AA720008492C25732C25732CC7
:103FB00025730D0A000000009E0300209C030020D2
:103FC000522C25642C25640D0A0000002C000000F2
:103FD0003B000000A003002043530000434A0000C0
:103FE0002A00000000002041434D00000000A040D6
:103FF000534E4B005355460053554100534954000E
:104000005341500053535000474150004753500014
:104010005241000017A1204600F024FF30B10120DA
:1040200000F03CFE0120FFF7C7FD12E012A1204680
:1040300000F018FF28B1012010490870FFF703FEB7
:1040400007E00FA1204600F00DFF10B100200B4942
:104050000870641CA01B0B4909788842FFF619AE52
:104060000020084908708021074800F0F0FEBDE8F4
:10407000FC9F000052560000524200000103002045
:104080005253000000030020AC0300200020FE4932
:104090000880FE490880FE490860FE490860FE4924
:1040A0000860FE490860FE490860FE490860FE4954
:1040B0000860FE490860FE490860FE490860FE4944
:1040C0000860FE490860FE490860FE490860FE4934
:1040D0000860FE490860FE490860FE490860FE4924
:1040E0000860FE490870FE490870FE490870704774
:1040F00070B504460D460021FB48006801F02AFA1D
:1041000034D11E2C0DDD1E2D0BDDF849E74800686B
:1041100001F02AFA05D2F649E448006801F01AFADB
:1041200011D314F11E0F1DDA15F11E0F1ADAEF4923
:10413000DE48006801F018FA14D2ED49DB48006847
:1041400001F008FA0ED2EB480088401CE9490880CB
:104150000846008832280CDD002008800120E6494E
:10416000086006E00020E349088002E00020E14901
:10417000088070BD70B5E048006800B970BDDF49C7
:10418000CA48006801F0F0F948D2DD49C748006824
:1041900001F0E0F942D2DB480088401CD949088090
:1041A0000846008832283EDB00200880D648016897
:1041B000BE48006800F0E4FE064601F06BF90446D4
:1041C000D24AD34B01F07AF920D2CF480168B748E0
:1041D000006800F0D5FE064601F05CF90446CB4AC3
:1041E000CC4B01F083F911D2CB480088401CCA495E
:1041F00008800846008804280BDB00200880C1499D
:104200000880A9490860BC49086002E00020C24952
:104210000880A6480068BC49086004E00020B9494D
:104220000880BD49088000BFA8E710B59648B0F9DE
:1042300000109648B0F90000FFF75AFFFFF79AFF09
:10424000AD48006830B1B548007840F00200B3498D
:10425000087005E0B148007820F00200AF4908700E
:10426000A3499248006801F07FF905D39F498F4820
:10427000006801F06FF906D2A848007840F0040009
:10428000A649087005E0A548007820F00400A3497D
:10429000087010BD70B504460D46002C09DA0821DF
:1042A0009F48FCF7AEFD10219D48FCF7ACFD644231
:1042B00007E010219A48FCF7A4FD08219848FCF774
:1042C000A2FD002D09DA01219648FCF79AFD022192
:1042D0009448FCF798FD6D4207E002219148FCF7F5
:1042E00090FD01218F48FCF78EFDB5F57A7F01DB4B
:1042F00040F2E735B4F57A7F01DB40F2E7348748D6
:10430000007840B100218848FDF7B6FE00218648BC
:10431000FDF7B4FE07E0A9B28348FDF7ADFEA1B2F8
:104320008148FDF7ABFE70BD70B564480168644814
:10433000006800F025FE044664480168204600F04D
:104340001FFE614908605D4801685D48006800F033
:1043500017FE04465D480168204600F0BFFD59493C
:1043600008605948006801F030F8002807DD002196
:104370005548006800F0B2FD534908600CE052480F
:10438000006801F022F8002806DA00214E48006893
:1043900000F0F6FD4C4908604A48006801F015F845
:1043A000002807DD00214748006800F097FD4549D7
:1043B00008600CE04348006801F007F8002806DABE
:1043C00000214048006800F0DBFD3E4908603E489F
:1043D000006800F0FAFFB0F57A7F02DB53483A49F3
:1043E00008603948006800F0F0FF10F57A7F02DCC1
:1043F0004F48354908603348006800F0E6FFB0F5E3
:104400007A7F02DB49482F4908602E48006800F097
:10441000DCFF10F57A7F02DC45482A49086029480C
:10442000006800F0D2FF04462748006800F0CDFF86
:1044300005462146FFF72EFF70BD10B54FF08040B6
:10444000FDF739FE00B2114908803A48FDF733FE06
:10445000404200B20C49088000204FF0804188841F
:104460003449243108800D4800680849B1F900102A
:1044700008440A490860084800680349B1F9001077
:1044800008440549086057E02A030020280300205B
:10449000300300202C0300203803002034030020C8
:1044A000440300203C030020480300207803002040
:1044B0007C030020800300207403002010030020F0
:1044C0001C03002024030020200300206803002098
:1044D000640300206C03002070030020040300200C
:1044E0000503002006030020400300200000F0C167
:1044F0000000F041900300208C0300200000A0C0C9
:104500000000A0409A030020940300209A999999F2
:104510009999E93F9999E9BF980300200903002080
:1045200000080140000C01400004004000C0794434
:1045300000C079C400080040FC480068FC49B1F99B
:104540000010401AF9490860FA480068FA49B1F9C0
:104550000010401AF749086010BD2DE9F04F87B0F0
:10456000F648B0F9000000F012FF06460022F44BB6
:1045700000F095FECDE90201F248B0F9000000F02C
:1045800006FF06460022EE4B00F089FE8046DDE97C
:10459000022302F0A9F904460022EB4B00F00DFEC5
:1045A000EA4AEB4BCDE9040100F079FE824600F0C7
:1045B000B5FFE8490860E848006800F0DFFE0446FF
:1045C000E4480168204600F0DEFCE2490860E34868
:1045D000B0F9000000F0DBFE06464FF06632E04B1B
:1045E00000F05DFE044600F01DFF00B2DB490880CC
:1045F0000846B0F9000000F0C1FEDA490860D5486D
:10460000006800F047FF0446D74AD84B00F0D5FDBC
:10461000CDE90201D348006800F03CFF8246D24A4F
:10462000D34B00F0CAFD06460F46D248006800F0A2
:1046300031FF804632463B4600F018FD0446CE4A24
:10464000CE4B00F0BAFDCDE90001DDE9022300F018
:104650000DFDCDE9040100F061FFC649086007B017
:10466000BDE8F08F2DE9F041C5498868C54900F0E3
:10467000BFFC0646BB480168002000F081FC0746ED
:10468000314600F083FC0446BA480168002000F07F
:1046900077FC0746BA480168384600F077FC0646C2
:1046A000B94900F073FC0546214600F017FCB749F4
:1046B0000860BDE8F0812DE9FE4FB5490968B54AAB
:1046C0001268881800F063FE06460022B24B00F024
:1046D00074FD044600F022FFB04908600020AD4997
:1046E0000860AB490860AD48006800F0D3FE06469C
:1046F0004FF03332AA4B00F060FD04460D46A94846
:10470000006800F0C7FE06464FF06632A64B00F088
:1047100054FD804622462B4600F0A8FC824600F05D
:10472000FDFE9E490860084600689E4908609F4853
:104730000068009099480168009800F021FC009002
:104740009B480168009800F021FC02909849486855
:1047500000F0A0FE82460022964B00F0A0FD064627
:104760000F46009800F096FE804632463B4600F029
:1047700024FD044600F0D2FE01908F4801990068A4
:1047800000F0ACFB8C4908608C4801688A480068DE
:1047900000F0A4FB884908600846006800F015FE98
:1047A00000B2B0F52F7F02DD85488349086082485A
:1047B000006800F00AFE00B210F5617F02DA81485D
:1047C0007D49086080480068804908607A4801682F
:1047D000029800F083FB7C490860BDE8FE8F2DE95C
:1047E000F0417A4801687848006800F0C9FB064645
:1047F00077480078401C00F0C1FD0746314600F0C4
:10480000C5FB0546734900F0F3FB04466F48016899
:10481000204600F063FB70490860BDE8F0812DE997
:10482000FC5F8146884614461D460C9E2146404644
:1048300000F090FE17D22946304600F0A1FB414619
:104840000190204600F09CFB0090019900F0D0FB05
:1048500082464146484600F093FB8346514600F0AD
:10486000C7FB074616E02946304600F089FB834621
:104870002146404600F084FB5946009000F0B8FB0A
:1048800082464146484600F07EFB5146019000F0CA
:10489000AFFB07463146384600F066FE01D2374688
:1048A00005E02946384600F055FE00D22F4638462E
:1048B000BDE8FC9F38B505460C460021284600F0AF
:1048C00053FE0AD2454800232E4A19460090284636
:1048D000FFF7A5FF424908600BE040480023414A2A
:1048E000194600902846FFF79AFF80F000403C49A7
:1048F00008600021204600F037FE0AD23A48002323
:10490000204A194600902046FFF789FF2749086092
:104910000BE035480023334A194600902046FFF744
:104920007EFF80F000402149086038BD84030020EC
:1049300028030020880300202A0300202E000020E6
:104940000000D0402C000020008066401F85EB5105
:10495000B81E0940800300200C0300202A0000201C
:10496000666630407C0300207B14AE47E17A943FBA
:10497000E17A743F780300205C8FC2F5285CEF3F3A
:104980004C030020000020410000A0401C03002038
:1049900034030020380300200000E03F3C030020E7
:1049A0003333D33F440300206666E63F40030020D4
:1049B0005803002000002440480300206403002026
:1049C00000002F44000061C41803002014030020DD
:1049D000060300200000C841100300200000C84367
:1049E00068030020000020C100008C4210B504467E
:1049F000FCB942480068002808DB404800680C28E1
:104A000004DC3F490020FFF755FF34E03B480068D5
:104A1000122809DD394800681E2805DC4FF0814165
:104A20000020FFF747FF26E000210846FFF742FF7E
:104A300021E0012C1FD13148006800280EDB2F48EF
:104A4000006814280ADC00212E48FFF733FF40F2EB
:104A5000EE202D49086040422C4908602A48006831
:104A6000002808DA29480068002804DD4FF0814159
:104A70000020FFF71FFF10BD2DE9F04188B0002690
:104A80000025FEF741F9044604F0040008B1204E69
:104A90001AE004F0020008B11E4E15E004F0010017
:104AA00008B1174E10E004F0400008B11A4E0BE0B8
:104AB00004F0200008B1194E06E004F0100010B117
:104AC0004FF0814600E00026154D29463046FFF79D
:104AD000F1FE284600F079FC0746304600F075FCF0
:104AE00080463B4642460FA1684601F0F1F8684611
:104AF000FEF734FF08B0BDE8F0810000F8020020A6
:104B0000000080C00000A040840300208803002033
:104B1000000020C10000C0C0000020410000C040D3
:104B20000000404053746565723A25642C20537030
:104B30006565643A25640D0A000000002DE9F04126
:104B400006460D4617460024FBF78FFD3520FCF77F
:104B500027F800BF05E05F48205C5F490855601CEE
:104B6000C4B2802CF7DB002406E015F8010B3119E4
:104B7000594A5054601CC4B2BC42F6DB5548FBF79E
:104B8000B9FD002407E0544A1159524AA018FBF716
:104B900081FE201DC4B2802CF5DB3520FCF700F827
:104BA000FBF76FFDBDE8F08110B50346002006E07D
:104BB000484C1C44245C01F8014B441CE0B2904278
:104BC000F6DB10BD08B5012269463220FFF7ECFF85
:104BD0009DF80000012805D10C2240493320FFF741
:104BE000E3FF04E00C223D490220FFF7DDFF012234
:104BF00069464820FFF7D8FF9DF80000012805D13D
:104C00000C2237494920FFF7CFFF04E00C2234493A
:104C10001220FFF7C9FF08BD08B50222694600202F
:104C2000FFF7C2FF9DF80000A52806D19DF80100FE
:104C30005A2802D1FFF7C6FF14E0A5208DF8000026
:104C40005A208DF80100022269460020FFF776FF06
:104C50000C2222490220FFF771FF0C22204912206A
:104C6000FFF76CFF08BD38B504460120009054B929
:104C7000012269463220FFF761FF0C2217493320D9
:104C8000FFF75CFF09E0012269464820FFF756FF65
:104C90000C2213494920FFF751FF38BD38B50446AF
:104CA0000020009054B9012269463220FFF746FFE8
:104CB0000C220A490220FFF777FF09E0012269462A
:104CC0004820FFF73BFF0C2205491220FFF76CFF3D
:104CD00038BD000000F00008360400204C0300201E
:104CE0005803002010B51248008800B110BD4FF4E1
:104CF0007A700F4908800F480088401C0D490880D1
:104D0000FDF750FD0C4908800C48007808B1FEF70B
:104D1000A9FFFDF787FD00BFE8E7FDF7BBFDFFF743
:104D20007BFFFFF7B3F9FEF772FE00BFFEE700005E
:104D30002C0400209C0300209E030020010300207F
:104D4000704700BFFEE700BFFEE700BFFEE700BF01
:104D5000FEE7704770477047704710B5FEF744FE96
:104D600031480078401C3049087030480078401CB9
:104D70002E490870FFF733FD2B480078052805DB26
:104D8000002029490870FFF758FB2CE026480078DE
:104D9000012804D1FEF7E3F9FFF7DFFB23E0224807
:104DA0000078022802D1FFF75DFC1CE01E48007865
:104DB000032810D11E480078401C1D490870084681
:104DC000007805280FDBFFF776FC002018490870F3
:104DD0001649087007E014480078042803D1FFF74B
:104DE00024FAFFF7A1FA10BD10B540F22551114881
:104DF000FDF748FBB8B110480078802802DB00209E
:104E00000D4908700B48FDF7BDFAC1B20A48027897
:104E10000078401C084B18700848815440F2255116
:104E20000448FDF759FB10BD0403002006030020D1
:104E3000050300200048004000030020AC030020D0
:104E4000D2B201E000F8012B491EFBD270470022CC
:104E5000F6E710B513460A4604461946FFF7F0FF79
:104E6000204610BD30B505462A460B4612F8010B08
:104E700013F8014B08B1A042F8D01CB1002802D0B1
:104E80006D1CF1E7284630BD421C10F8011B0029BB
:104E9000FBD1801A7047000070B50F4D00B928682B
:104EA000002412E00A4602E09E4203D0521C13780E
:104EB000002BF9D1DAB2224305D02BB124B1002165
:104EC00000F8011B04E00446401C0678002EE9D1DE
:104ED0002860204670BD0000A4030020F0B480EAE2
:104EE0000102D40F4200B2EB410F02D20246084643
:104EF00011464A0042D0C30DDDB2C1F3C752AD1A0C
:104F0000202D35DAC1F3160141F4000204B15242FA
:104F1000C5F1200602FA06F12A411044B3EBD05F36
:104F200023D0C4B1012DA0EBC35009DCF0BC4FF07D
:104F3000004202EAC352DBB200F5000000F0EDBB14
:104F4000400000F1807000EBC350A0F1807040EA97
:104F5000D170490009E0490841EAC071A0EBC35093
:104F600000F50000400800EBC350F0BC00F0CCBBE3
:104F70006142012202EB4101001BF6E7F0BC7047E1
:104F800081F00041AAE780F00040A7E780EA010233
:104F900010B502F00043400022D04A001FD0010E9D
:104FA00001EB1261C0F35600C2F3560240F4000058
:104FB00042F40002A0FB022000047F39140400D058
:104FC000401C50EA124001D44000491EC2B20C06F7
:104FD00004EBD010401C4008802A02D003E00020DF
:104FE00010BD20F00100002900DA0020184310BD98
:104FF00030B480EA010202F0004530F0004221F0B6
:10500000004013D090B1C30DD40DC2F31601C0F30C
:105010001600E41A41F4000140F400027D3491428C
:1050200001D3641C00E04900002C02DA30BC0020EF
:1050300070474FF400000023914201D3891A0343C3
:1050400040084FEA4101F7D151B1914202D14FF0EE
:10505000004105E002D24FF0010101E06FF00101D3
:1050600003EBC450284430BC00F04EBB2DE9FE4F8A
:10507000804681EA0300C00F0C46009021F00041F9
:1050800023F00045B8EB0200A94105D24046214675
:1050900090461C460B46024623F00040104347D082
:1050A000270DC7F30A00C3F30A510290401A01907A
:1050B00040286BDAC3F3130040F4801B009892463B
:1050C00020B10023D2EB030A63EB0B0B0198594686
:1050D000C0F14002504600F098FA06460D46504690
:1050E0005946019A00F0B0FA10EB08006141002423
:1050F00087EA115284EAE7731A4340D0009A62B3F8
:10510000019A012A4FEA075215DC001B61EB0201EC
:105110004FF0004202EA0752CDE90042001C41F57F
:10512000801132462B4600F035FB03B0BDE8F08F0E
:1051300040462146F9E7001B61EB0201001C41F5E6
:10514000801300185B412018A2F5001747EB0301FC
:1051500040EAD570B6196D4111E06D084FEA360688
:1051600045EAC0754FEA0752001B61EB0201001CC3
:1051700041F5801149084FEA30000019514132468B
:105180002B4603B0BDE8F04F00F0F5BA00980122BD
:1051900040000023D0EB020263EBE073009821464D
:1051A0004FEAE074B8EB000061EB0401E9E783F03B
:1051B00000435BE781F0004158E72DE9FE4F81EAAB
:1051C000030404F0004421F0004100944FF0000B70
:1051D00023F0004350EA01045ED052EA03045BD09E
:1051E000C3F30A54C1F30A552C44A4F2F3340194D6
:1051F000A0FB0254C1F3130141F48011C3F3130364
:1052000043F4801301FB024400FB034E840A970A17
:1052100044EA815447EA8357A4FB076802958D0A44
:1052200005FB07854FEA932C04FB0C542705029DD0
:105230004FEA065847EA1637B5EB08056EEB070C40
:10524000870E920E47EA811742EA8312A7FB0201FA
:10525000B6EB0B0164EB00042B0D43EA0C335E1834
:1052600044EB1C50DA465146E7FB0201C5F3130438
:105270004FEA0B3343EA14534FEA0432019C43EAEA
:105280000603A4F10C040294009CCDE900B400F0E4
:1052900081FA03B0BDE8F08F00200146F9E72DE95F
:1052A000F04D81EA030404F0004B21F00045144660
:1052B0004FF0000A23F0004150EA050220D054EAE2
:1052C00001021DD0C5F30A570246C5F31303C1F30B
:1052D0001300C1F30A5640F4801543F48013A7EB82
:1052E0000608101BD64608F2FD3873EB050002D302
:1052F00008F1010801E092185B41B8F1000F03DAF0
:1053000000200146BDE8F08D00204FF480110646D4
:1053100084460EE0171B73EB050705D3121B63EBE6
:10532000050306434CEA010C49084FEA3000921885
:105330005B4150EA0107EDD152EA030012D082EA44
:10534000040083EA0501084305D0101BAB4106D2D7
:105350000122002306E000224FF0004302E06FF03C
:10536000010253101AEB06004CEB085110EB0A0037
:1053700041EB0B01BDE8F04D00F0FDB9C10F80EA33
:10538000E0700844CA079623002100F0C6B90EB5A4
:10539000C10F80EAE0700844CA07002140F233439D
:1053A0008DE80E000A460B4600F0F4F903B000BD8C
:1053B0000EB540F2334102910021CDE900110A46B9
:1053C0000B4600F0E7F903B000BD00F0004220F00A
:1053D0000040C10DC0F3160040F400007F2901DA3F
:1053E00000207047962903DCC1F19601C84001E016
:1053F00096398840002AF4D04042704720F000409F
:10540000C10DC0F3160040F400007F2901DA00202E
:105410007047962903DCC1F19601C8407047963960
:105420008840704770B5C1F30A5201F0004500246E
:10543000C1F3130140F2FF3341F480119A4201DAC3
:10544000002070BD40F233439A42A2F2334203DCA3
:10545000524200F0E9F800E090402C43F1D0404285
:1054600070BDC1F30A5210B5C1F3130140F2FF330E
:1054700041F480119A4201DA002010BD40F233431A
:105480009A42A2F2334203DC524200F0CDF810BD42
:10549000904010BD00F0004230F000400AD0C10D35
:1054A00001F56071C0F3160042EA0151C2084007DD
:1054B00011437047002001467047000030B5041EBC
:1054C00071F1000404DB4FF00044404264EB010141
:1054D000141E73F1000405DB1C464FF000435242DA
:1054E00063EB04038B4208BF824230BD30B5041E1B
:1054F00071F1000404DB4FF00044404264EB010111
:10550000141E73F1000405DB1C464FF000435242A9
:1055100063EB0403994208BF904230BD01F00043A1
:1055200030B421F0004150EA010206D00A0DA2F584
:105530006072C1F31301002A02DC30BC0020704706
:10554000440F44EAC104C100E01830BC00EBC25073
:1055500000F0DAB8002801DBC0F10040002901DBCF
:10556000C1F1004181427047002801DBC0F10040D9
:10557000002901DBC1F100418842704730B50B467C
:10558000014600202022012409E021FA02F59D4273
:1055900005D303FA02F5491B04FA02F52844151E47
:1055A000A2F10102F1DC30BD2DE9F05F05460020DB
:1055B00092469B4688460646814640241BE0284684
:1055C00041464746224600F02FF853465A46C01A35
:1055D000914110D311461846224600F016F82D1AB4
:1055E00067EB01084F4622460120002100F00DF82C
:1055F00017EB00094E41201EA4F10104DFDC4846F0
:1056000031462A464346BDE8F09F202A04DB203A73
:1056100000FA02F1002070479140C2F1200320FA05
:1056200003F3194390407047202A04DB203A21FA03
:1056300002F00021704721FA02F3D040C2F12002AB
:105640009140084319467047202A06DBCB17203AC1
:1056500041FA02F043EAE07306E041FA02F3D04077
:10566000C2F1200291400843194670470FB400234D
:1056700000B589B00CA900910B996FF00042CB6086
:105680001E4B06931E4B07930423CDE901321D4A9E
:10569000089202466B46002000F07AF909B05DF8E6
:1056A00014FB70B586B006464FF0FF300091CDE98F
:1056B0000101002015460C4604903246694604A8B4
:1056C000FFF7D4FF03460498211825B108B10A4614
:1056D00000E022462A6000280DD0002B02DD009851
:1056E000884208D0081B0094CDE90104324669467F
:1056F00004A8FFF7BBFF06B070BD0000C95B00083F
:10570000E75B0008855800080029A8BF7047401CC7
:10571000490008BF20F00100704710B4B0FA80FCC7
:1057200000FA0CF050EA010404BF10BC704749B104
:10573000CCF1200421FA04F411FA0CF118BF012174
:1057400021430843A3EB0C01CB1D4FEA00614FEA54
:10575000102042BF002010BC704700EBC350104423
:105760000029A4BF10BC7047401C490008BF20F0AE
:10577000010010BC704710B5141E73F1000408DA64
:10578000401C41F1000192185B411A4301D120F005
:10579000010010BD2DE9F04D92469B4611B1B1FAC2
:1057A00081F202E0B0FA80F220329046FFF72DFF3E
:1057B00004460F4640EA0A0041EA0B0153465A46A6
:1057C000084313D0114653EA010019D0C8F1400232
:1057D0005046FFF729FF05460E46504659464246B9
:1057E000FFF713FF084305D0012004E020463946A7
:1057F000BDE8F08D0020054346EAE0762C433743B0
:105800000A986305E40AA0EB08000022FD0A44EAB6
:1058100047540A3002D500200146E9E70105101976
:105820006941DDE9084500196941BDE8F04DA2E78D
:10583000C1F30A52C1F3130140F2FF3341F4801166
:105840009A4202DA00200146704740F233439A42FE
:10585000A2F2334202DC5242FFF7E6BEFFF7D5BEAA
:10586000064C074D06E0E06840F0010394E80700AD
:1058700098471034AC42F6D3FAF73CFCA873000802
:10588000C8730008C0B24FF4F05100F0D5B9000061
:105890002DE9FF4F087881B09946FF2805D0491CB3
:1058A0002D2804D00024002308E000230BE001246D
:1058B000F9E703EB830300EB4303491C0878FF2857
:1058C000F7D104B15B4200200090147801462D2CE2
:1058D00001D02B2C04D1521C2D2C12D0002400946A
:1058E00000251678FF2E0ED00A24A0FB04C801FB69
:1058F0000481002700FB0711521C16EB0C006941C4
:10590000EFE70124EBE7994450EA01020ED00024AE
:10591000AA4D2646DFF8A88200F0A2F982468B46FF
:10592000B9F1000009DAC9F100071BE00198002174
:10593000C0E9001105B0BDE8F08F074612E0F80796
:1059400007D022462B4630464146FFF736FC064636
:10595000884622462B4610461946FFF72EFC044681
:105960000D467F10002FEAD1B9F1000F32464346B1
:105970005046594602DAFFF792FC01E0FFF71DFCA2
:10598000009A0AB181F00041019AC2E90001D1E711
:105990002DE9FF4F1F468DB0D7E901464FF0FF3884
:1059A0002E2045464FF000090B90B9696D1C0E98EA
:1059B0008847396A824688470028F6D1BAF1FF3F06
:1059C0000AD024F4D064002E11DDBAF12B0F08D0D8
:1059D000BAF12D0F0BD102E0404611B0ABE744F411
:1059E0008064B9696D1C0E9888478246761E6946A8
:1059F000600501D52D2000E02B208DF8000001F17D
:105A0000010B0DF1200809E0B9696D1C0E9888475B
:105A100082460F9844F40074761E0560002E02DD65
:105A2000BAF1300FF0D00B998A453ED144F0800492
:105A300006E00F99681CA9F1010944F4007408609C
:105A4000B9696D1C761E0E98884782463028F0D0C2
:105A50002BE00B998A4505D1200603D444F080043D
:105A6000761E18E0504600F08BFA08B30DF11301D2
:105A7000761E44F400748B4508D2AAF130000BF86E
:105A8000010B200607D5A9F1010003E0200602D48E
:105A900009F101008146A00502D50F99681C086034
:105AA000B9696D1C0E9888478246002ED1DC53E000
:105AB000002E51DDBAF1650F02D0BAF1450F4BD17E
:105AC000A00549D5B9696D1C24F44074761E0E9862
:105AD00088478246002E0CDD2B2804D0BAF12D0F0A
